{
  "contractName": "AdouCollator",
  "abi": [
    {
      "inputs": [
        {
          "internalType": "uint256",
          "name": "_techProportion",
          "type": "uint256"
        },
        {
          "internalType": "uint256",
          "name": "_fundsDownLimit",
          "type": "uint256"
        },
        {
          "internalType": "uint256",
          "name": "_perInvestDownLimit",
          "type": "uint256"
        },
        {
          "internalType": "uint256",
          "name": "_nodeStartDate",
          "type": "uint256"
        },
        {
          "internalType": "uint256",
          "name": "_rewardDownLimit",
          "type": "uint256"
        },
        {
          "internalType": "address",
          "name": "_techRewardAddr",
          "type": "address"
        },
        {
          "internalType": "uint256",
          "name": "_scheduleTime",
          "type": "uint256"
        }
      ],
      "stateMutability": "nonpayable",
      "type": "constructor"
    },
    {
      "anonymous": false,
      "inputs": [
        {
          "indexed": true,
          "internalType": "bytes32",
          "name": "role",
          "type": "bytes32"
        },
        {
          "indexed": true,
          "internalType": "bytes32",
          "name": "previousAdminRole",
          "type": "bytes32"
        },
        {
          "indexed": true,
          "internalType": "bytes32",
          "name": "newAdminRole",
          "type": "bytes32"
        }
      ],
      "name": "RoleAdminChanged",
      "type": "event"
    },
    {
      "anonymous": false,
      "inputs": [
        {
          "indexed": true,
          "internalType": "bytes32",
          "name": "role",
          "type": "bytes32"
        },
        {
          "indexed": true,
          "internalType": "address",
          "name": "account",
          "type": "address"
        },
        {
          "indexed": true,
          "internalType": "address",
          "name": "sender",
          "type": "address"
        }
      ],
      "name": "RoleGranted",
      "type": "event"
    },
    {
      "anonymous": false,
      "inputs": [
        {
          "indexed": true,
          "internalType": "bytes32",
          "name": "role",
          "type": "bytes32"
        },
        {
          "indexed": true,
          "internalType": "address",
          "name": "account",
          "type": "address"
        },
        {
          "indexed": true,
          "internalType": "address",
          "name": "sender",
          "type": "address"
        }
      ],
      "name": "RoleRevoked",
      "type": "event"
    },
    {
      "stateMutability": "payable",
      "type": "fallback"
    },
    {
      "inputs": [],
      "name": "DEFAULT_ADMIN_ROLE",
      "outputs": [
        {
          "internalType": "bytes32",
          "name": "",
          "type": "bytes32"
        }
      ],
      "stateMutability": "view",
      "type": "function"
    },
    {
      "inputs": [
        {
          "internalType": "bytes32",
          "name": "role",
          "type": "bytes32"
        }
      ],
      "name": "getRoleAdmin",
      "outputs": [
        {
          "internalType": "bytes32",
          "name": "",
          "type": "bytes32"
        }
      ],
      "stateMutability": "view",
      "type": "function"
    },
    {
      "inputs": [
        {
          "internalType": "bytes32",
          "name": "role",
          "type": "bytes32"
        },
        {
          "internalType": "address",
          "name": "account",
          "type": "address"
        }
      ],
      "name": "grantRole",
      "outputs": [],
      "stateMutability": "nonpayable",
      "type": "function"
    },
    {
      "inputs": [
        {
          "internalType": "bytes32",
          "name": "role",
          "type": "bytes32"
        },
        {
          "internalType": "address",
          "name": "account",
          "type": "address"
        }
      ],
      "name": "hasRole",
      "outputs": [
        {
          "internalType": "bool",
          "name": "",
          "type": "bool"
        }
      ],
      "stateMutability": "view",
      "type": "function"
    },
    {
      "inputs": [
        {
          "internalType": "bytes32",
          "name": "role",
          "type": "bytes32"
        },
        {
          "internalType": "address",
          "name": "account",
          "type": "address"
        }
      ],
      "name": "renounceRole",
      "outputs": [],
      "stateMutability": "nonpayable",
      "type": "function"
    },
    {
      "inputs": [
        {
          "internalType": "bytes32",
          "name": "role",
          "type": "bytes32"
        },
        {
          "internalType": "address",
          "name": "account",
          "type": "address"
        }
      ],
      "name": "revokeRole",
      "outputs": [],
      "stateMutability": "nonpayable",
      "type": "function"
    },
    {
      "inputs": [
        {
          "internalType": "bytes4",
          "name": "interfaceId",
          "type": "bytes4"
        }
      ],
      "name": "supportsInterface",
      "outputs": [
        {
          "internalType": "bool",
          "name": "",
          "type": "bool"
        }
      ],
      "stateMutability": "view",
      "type": "function"
    },
    {
      "stateMutability": "payable",
      "type": "receive"
    },
    {
      "inputs": [
        {
          "internalType": "uint256",
          "name": "_techProportion",
          "type": "uint256"
        },
        {
          "internalType": "uint256",
          "name": "_fundsDownLimit",
          "type": "uint256"
        },
        {
          "internalType": "uint256",
          "name": "_perInvestDownLimit",
          "type": "uint256"
        },
        {
          "internalType": "uint256",
          "name": "_nodeStartDate",
          "type": "uint256"
        },
        {
          "internalType": "uint256",
          "name": "_rewardDownLimit",
          "type": "uint256"
        },
        {
          "internalType": "address",
          "name": "_techRewardAddr",
          "type": "address"
        },
        {
          "internalType": "uint256",
          "name": "_scheduleTime",
          "type": "uint256"
        }
      ],
      "name": "setParameter",
      "outputs": [],
      "stateMutability": "nonpayable",
      "type": "function"
    },
    {
      "inputs": [],
      "name": "scheduleLeaveStake",
      "outputs": [],
      "stateMutability": "nonpayable",
      "type": "function"
    },
    {
      "inputs": [],
      "name": "executeLeaveStake",
      "outputs": [],
      "stateMutability": "nonpayable",
      "type": "function"
    },
    {
      "inputs": [],
      "name": "addStake",
      "outputs": [],
      "stateMutability": "payable",
      "type": "function"
    },
    {
      "inputs": [],
      "name": "addMoreStake",
      "outputs": [],
      "stateMutability": "payable",
      "type": "function"
    },
    {
      "inputs": [],
      "name": "reStakeRedeem",
      "outputs": [],
      "stateMutability": "nonpayable",
      "type": "function"
    },
    {
      "inputs": [
        {
          "internalType": "uint256",
          "name": "amount",
          "type": "uint256"
        }
      ],
      "name": "scheduleRedeemStake",
      "outputs": [],
      "stateMutability": "nonpayable",
      "type": "function"
    },
    {
      "inputs": [],
      "name": "executeRedeemStake",
      "outputs": [],
      "stateMutability": "nonpayable",
      "type": "function"
    },
    {
      "inputs": [],
      "name": "start",
      "outputs": [],
      "stateMutability": "nonpayable",
      "type": "function"
    },
    {
      "inputs": [
        {
          "internalType": "bytes32",
          "name": "nimbusId",
          "type": "bytes32"
        }
      ],
      "name": "addAssociation",
      "outputs": [],
      "stateMutability": "nonpayable",
      "type": "function"
    },
    {
      "inputs": [
        {
          "internalType": "bytes32",
          "name": "oldNimbusId",
          "type": "bytes32"
        },
        {
          "internalType": "bytes32",
          "name": "newNimbusId",
          "type": "bytes32"
        }
      ],
      "name": "updateAssociation",
      "outputs": [],
      "stateMutability": "nonpayable",
      "type": "function"
    },
    {
      "inputs": [],
      "name": "failBackStake",
      "outputs": [],
      "stateMutability": "nonpayable",
      "type": "function"
    },
    {
      "inputs": [
        {
          "internalType": "address payable",
          "name": "account",
          "type": "address"
        }
      ],
      "name": "claimRedeem",
      "outputs": [],
      "stateMutability": "nonpayable",
      "type": "function"
    },
    {
      "inputs": [],
      "name": "assignRewards",
      "outputs": [],
      "stateMutability": "nonpayable",
      "type": "function"
    },
    {
      "inputs": [
        {
          "internalType": "address",
          "name": "account",
          "type": "address"
        }
      ],
      "name": "fundsTransfer",
      "outputs": [],
      "stateMutability": "nonpayable",
      "type": "function"
    },
    {
      "inputs": [],
      "name": "getBalance",
      "outputs": [
        {
          "internalType": "uint256",
          "name": "",
          "type": "uint256"
        }
      ],
      "stateMutability": "view",
      "type": "function"
    },
    {
      "inputs": [],
      "name": "getReward",
      "outputs": [
        {
          "internalType": "uint256",
          "name": "",
          "type": "uint256"
        }
      ],
      "stateMutability": "view",
      "type": "function"
    },
    {
      "inputs": [],
      "name": "getRedeem",
      "outputs": [
        {
          "internalType": "uint256",
          "name": "",
          "type": "uint256"
        }
      ],
      "stateMutability": "view",
      "type": "function"
    },
    {
      "inputs": [],
      "name": "getStake",
      "outputs": [
        {
          "internalType": "uint256",
          "name": "",
          "type": "uint256"
        }
      ],
      "stateMutability": "view",
      "type": "function"
    },
    {
      "inputs": [],
      "name": "getTotalStake",
      "outputs": [
        {
          "internalType": "uint256",
          "name": "",
          "type": "uint256"
        }
      ],
      "stateMutability": "view",
      "type": "function"
    },
    {
      "inputs": [],
      "name": "getStakeProportion",
      "outputs": [
        {
          "internalType": "uint256",
          "name": "",
          "type": "uint256"
        }
      ],
      "stateMutability": "view",
      "type": "function"
    },
    {
      "inputs": [],
      "name": "getTotalReward",
      "outputs": [
        {
          "internalType": "uint256",
          "name": "",
          "type": "uint256"
        }
      ],
      "stateMutability": "view",
      "type": "function"
    },
    {
      "inputs": [],
      "name": "getPendingReward",
      "outputs": [
        {
          "internalType": "uint256",
          "name": "",
          "type": "uint256"
        }
      ],
      "stateMutability": "view",
      "type": "function"
    },
    {
      "inputs": [],
      "name": "getAnnualReward",
      "outputs": [
        {
          "internalType": "uint256",
          "name": "",
          "type": "uint256"
        }
      ],
      "stateMutability": "view",
      "type": "function"
    },
    {
      "inputs": [],
      "name": "getMemberReal",
      "outputs": [
        {
          "internalType": "uint256",
          "name": "",
          "type": "uint256"
        }
      ],
      "stateMutability": "view",
      "type": "function"
    },
    {
      "inputs": [],
      "name": "getNodeStartDate",
      "outputs": [
        {
          "internalType": "uint256",
          "name": "",
          "type": "uint256"
        }
      ],
      "stateMutability": "view",
      "type": "function"
    },
    {
      "inputs": [],
      "name": "getLeaveTime",
      "outputs": [
        {
          "internalType": "uint256",
          "name": "",
          "type": "uint256"
        }
      ],
      "stateMutability": "view",
      "type": "function"
    },
    {
      "inputs": [],
      "name": "getNodeState",
      "outputs": [
        {
          "internalType": "uint256",
          "name": "",
          "type": "uint256"
        }
      ],
      "stateMutability": "view",
      "type": "function"
    },
    {
      "inputs": [],
      "name": "getNodeConfig",
      "outputs": [
        {
          "components": [
            {
              "internalType": "uint256",
              "name": "techProportion",
              "type": "uint256"
            },
            {
              "internalType": "uint256",
              "name": "fundsDownLimit",
              "type": "uint256"
            },
            {
              "internalType": "uint256",
              "name": "perInvestDownLimit",
              "type": "uint256"
            },
            {
              "internalType": "uint256",
              "name": "rewardDownLimit",
              "type": "uint256"
            },
            {
              "internalType": "uint256",
              "name": "scheduleTime",
              "type": "uint256"
            }
          ],
          "internalType": "struct AdouCollator.NodeConfig",
          "name": "",
          "type": "tuple"
        }
      ],
      "stateMutability": "view",
      "type": "function"
    },
    {
      "inputs": [],
      "name": "getRedeemConfig",
      "outputs": [
        {
          "components": [
            {
              "internalType": "uint256",
              "name": "bondLess",
              "type": "uint256"
            },
            {
              "internalType": "address",
              "name": "bondLessAddr",
              "type": "address"
            },
            {
              "internalType": "uint256",
              "name": "bondLessTime",
              "type": "uint256"
            }
          ],
          "internalType": "struct AdouCollator.RedeemConfig",
          "name": "",
          "type": "tuple"
        }
      ],
      "stateMutability": "view",
      "type": "function"
    }
  ],
  "bytecode": "0x60806040526000601060006101000a81548160ff02191690831515021790555060006011556000601255600060155560006016553480156200004057600080fd5b5060405162005da338038062005da38339818101604052810190620000669190620004d3565b8660076000018190555062000092670de0b6b3a7640000876200028560201b620037b61790919060201c565b600760010181905550620000bd670de0b6b3a7640000866200028560201b620037b61790919060201c565b600760020181905550620000e8670de0b6b3a7640000846200028560201b620037b61790919060201c565b60076003018190555083600f819055508060076004018190555033601860006101000a81548173ffffffffffffffffffffffffffffffffffffffff021916908373ffffffffffffffffffffffffffffffffffffffff160217905550610800600260006101000a81548173ffffffffffffffffffffffffffffffffffffffff021916908373ffffffffffffffffffffffffffffffffffffffff160217905550610807600360006101000a81548173ffffffffffffffffffffffffffffffffffffffff021916908373ffffffffffffffffffffffffffffffffffffffff16021790555060603073ffffffffffffffffffffffffffffffffffffffff16901b60001b6001819055508160136000601154815260200190815260200160002060006101000a81548173ffffffffffffffffffffffffffffffffffffffff021916908373ffffffffffffffffffffffffffffffffffffffff1602179055506200025e60016011546200029d60201b620037cc1790919060201c565b6011819055506200027860015483620002b560201b60201c565b5050505050505062000673565b60008183620002959190620005b5565b905092915050565b60008183620002ad919062000616565b905092915050565b620002c78282620002cb60201b60201c565b5050565b620002dd8282620003bc60201b60201c565b620003b857600160008084815260200190815260200160002060000160008373ffffffffffffffffffffffffffffffffffffffff1673ffffffffffffffffffffffffffffffffffffffff16815260200190815260200160002060006101000a81548160ff0219169083151502179055506200035d6200042660201b60201c565b73ffffffffffffffffffffffffffffffffffffffff168173ffffffffffffffffffffffffffffffffffffffff16837f2f8788117e7eff1d82e926ec794901d17c78024a50270940304540a733656f0d60405160405180910390a45b5050565b600080600084815260200190815260200160002060000160008373ffffffffffffffffffffffffffffffffffffffff1673ffffffffffffffffffffffffffffffffffffffff16815260200190815260200160002060009054906101000a900460ff16905092915050565b600033905090565b600080fd5b6000819050919050565b620004488162000433565b81146200045457600080fd5b50565b60008151905062000468816200043d565b92915050565b600073ffffffffffffffffffffffffffffffffffffffff82169050919050565b60006200049b826200046e565b9050919050565b620004ad816200048e565b8114620004b957600080fd5b50565b600081519050620004cd81620004a2565b92915050565b600080600080600080600060e0888a031215620004f557620004f46200042e565b5b6000620005058a828b0162000457565b9750506020620005188a828b0162000457565b96505060406200052b8a828b0162000457565b95505060606200053e8a828b0162000457565b9450506080620005518a828b0162000457565b93505060a0620005648a828b01620004bc565b92505060c0620005778a828b0162000457565b91505092959891949750929550565b7f4e487b7100000000000000000000000000000000000000000000000000000000600052601160045260246000fd5b6000620005c28262000433565b9150620005cf8362000433565b9250817fffffffffffffffffffffffffffffffffffffffffffffffffffffffffffffffff04831182151516156200060b576200060a62000586565b5b828202905092915050565b6000620006238262000433565b9150620006308362000433565b9250827fffffffffffffffffffffffffffffffffffffffffffffffffffffffffffffffff0382111562000668576200066762000586565b5b828201905092915050565b61572080620006836000396000f3fe60806040526004361061021d5760003560e01c806361685e9611610123578063a217fddf116100ab578063bf38ac9d1161006f578063bf38ac9d146106e2578063d547741f1461070b578063dc03b33a14610734578063ef8b6cd81461075f578063fc0e3d901461078857610224565b8063a217fddf14610640578063aa90a5011461066b578063ab54d50a14610675578063bb29c5fa146106a0578063be9a6555146106cb57610224565b80638a5c04ee116100f25780638a5c04ee146105815780639160a25b146105ac57806391d14854146105c35780639a14679b146106005780639b87f49e1461061757610224565b806361685e96146104eb5780637bc74225146105145780637d1fcbfa1461053f57806381fb71761461056a57610224565b806325a39da5116101a65780633d18b912116101755780633d18b9121461044957806341230c431461047457806357f25c7f1461048b5780635a23248d146104b65780635a627dbc146104e157610224565b806325a39da5146103a35780632f2ff15d146103cc57806333ec558c146103f557806336568abe1461042057610224565b806311b5e486116101ed57806311b5e486146102ce57806312065fe0146102f95780631d52ecaf146103245780632289e5961461034f578063248a9ca31461036657610224565b806264010d1461022657806301ffc9a71461023d5780630c5cb5721461027a57806310329972146102a357610224565b3661022457005b005b34801561023257600080fd5b5061023b6107b3565b005b34801561024957600080fd5b50610264600480360381019061025f919061431d565b610921565b6040516102719190614365565b60405180910390f35b34801561028657600080fd5b506102a1600480360381019061029c91906143de565b61099b565b005b3480156102af57600080fd5b506102b8610c3f565b6040516102c59190614487565b60405180910390f35b3480156102da57600080fd5b506102e3610cc3565b6040516102f091906144b1565b60405180910390f35b34801561030557600080fd5b5061030e610ccd565b60405161031b91906144b1565b60405180910390f35b34801561033057600080fd5b50610339610cd5565b60405161034691906144b1565b60405180910390f35b34801561035b57600080fd5b50610364610d7b565b005b34801561037257600080fd5b5061038d60048036038101906103889190614502565b61112c565b60405161039a919061453e565b60405180910390f35b3480156103af57600080fd5b506103ca60048036038101906103c59190614559565b61114b565b005b3480156103d857600080fd5b506103f360048036038101906103ee91906145c5565b6112bd565b005b34801561040157600080fd5b5061040a6112e6565b60405161041791906144b1565b60405180910390f35b34801561042c57600080fd5b50610447600480360381019061044291906145c5565b611367565b005b34801561045557600080fd5b5061045e6113ea565b60405161046b91906144b1565b60405180910390f35b34801561048057600080fd5b50610489611431565b005b34801561049757600080fd5b506104a06117b4565b6040516104ad91906144b1565b60405180910390f35b3480156104c257600080fd5b506104cb6117fb565b6040516104d891906144b1565b60405180910390f35b6104e9611805565b005b3480156104f757600080fd5b50610512600480360381019061050d9190614631565b611a8e565b005b34801561052057600080fd5b50610529611d51565b60405161053691906144b1565b60405180910390f35b34801561054b57600080fd5b50610554611d5b565b60405161056191906144b1565b60405180910390f35b34801561057657600080fd5b5061057f611d65565b005b34801561058d57600080fd5b50610596612202565b6040516105a391906144b1565b60405180910390f35b3480156105b857600080fd5b506105c161220c565b005b3480156105cf57600080fd5b506105ea60048036038101906105e591906145c5565b61242c565b6040516105f79190614365565b60405180910390f35b34801561060c57600080fd5b50610615612496565b005b34801561062357600080fd5b5061063e6004803603810190610639919061465e565b61290a565b005b34801561064c57600080fd5b50610655612c68565b604051610662919061453e565b60405180910390f35b610673612c6f565b005b34801561068157600080fd5b5061068a612eb4565b60405161069791906146f3565b60405180910390f35b3480156106ac57600080fd5b506106b5612f00565b6040516106c291906144b1565b60405180910390f35b3480156106d757600080fd5b506106e0612f0a565b005b3480156106ee57600080fd5b506107096004803603810190610704919061470e565b6131d3565b005b34801561071757600080fd5b50610732600480360381019061072d91906145c5565b613585565b005b34801561074057600080fd5b506107496135ae565b60405161075691906144b1565b60405180910390f35b34801561076b57600080fd5b5061078660048036038101906107819190614502565b613600565b005b34801561079457600080fd5b5061079d61376f565b6040516107aa91906144b1565b60405180910390f35b601860009054906101000a900473ffffffffffffffffffffffffffffffffffffffff1673ffffffffffffffffffffffffffffffffffffffff163373ffffffffffffffffffffffffffffffffffffffff1614610843576040517f08c379a000000000000000000000000000000000000000000000000000000000815260040161083a9061480d565b60405180910390fd5b601060009054906101000a900460ff16610892576040517f08c379a000000000000000000000000000000000000000000000000000000000815260040161088990614879565b60405180910390fd5b60006108a9601654476137e290919063ffffffff16565b90506007600301548110156108f3576040517f08c379a00000000000000000000000000000000000000000000000000000000081526004016108ea906148e5565b60405180910390fd5b4760168190555061090f816015546137cc90919063ffffffff16565b60158190555061091e816137f8565b50565b60007f7965db0b000000000000000000000000000000000000000000000000000000007bffffffffffffffffffffffffffffffffffffffffffffffffffffffff1916827bffffffffffffffffffffffffffffffffffffffffffffffffffffffff19161480610994575061099382613c36565b5b9050919050565b6001546109af816109aa613ca0565b613ca8565b600073ffffffffffffffffffffffffffffffffffffffff168273ffffffffffffffffffffffffffffffffffffffff161415610a1f576040517f08c379a0000000000000000000000000000000000000000000000000000000008152600401610a1690614951565b60405180910390fd5b6000600660003373ffffffffffffffffffffffffffffffffffffffff1673ffffffffffffffffffffffffffffffffffffffff1681526020019081526020016000205411610aa1576040517f08c379a0000000000000000000000000000000000000000000000000000000008152600401610a98906149bd565b60405180910390fd5b476016541115610ae6576040517f08c379a0000000000000000000000000000000000000000000000000000000008152600401610add90614a29565b60405180910390fd5b6000600660003373ffffffffffffffffffffffffffffffffffffffff1673ffffffffffffffffffffffffffffffffffffffff168152602001908152602001600020549050600081601654610b3a9190614a78565b1015610b7b576040517f08c379a0000000000000000000000000000000000000000000000000000000008152600401610b7290614af8565b60405180910390fd5b610b90816016546137e290919063ffffffff16565b6016819055506000600660003373ffffffffffffffffffffffffffffffffffffffff1673ffffffffffffffffffffffffffffffffffffffff168152602001908152602001600020819055506000600560003373ffffffffffffffffffffffffffffffffffffffff1673ffffffffffffffffffffffffffffffffffffffff168152602001908152602001600020541415610c3057610c2f60015433613d45565b5b610c3a8382613e26565b505050565b610c4761425a565b600c604051806060016040529081600082015481526020016001820160009054906101000a900473ffffffffffffffffffffffffffffffffffffffff1673ffffffffffffffffffffffffffffffffffffffff1673ffffffffffffffffffffffffffffffffffffffff168152602001600282015481525050905090565b6000601754905090565b600047905090565b600080600454111580610ce95750600f5442105b15610cf75760009050610d78565b6000610d2362015180610d15600f54426137e290919063ffffffff16565b613f1a90919063ffffffff16565b905060008111610d37576000915050610d78565b610d7481610d66600454610d58618e946015546137b690919063ffffffff16565b613f1a90919063ffffffff16565b613f1a90919063ffffffff16565b9150505b90565b600154610d8f81610d8a613ca0565b613ca8565b6013600080815260200190815260200160002060009054906101000a900473ffffffffffffffffffffffffffffffffffffffff1673ffffffffffffffffffffffffffffffffffffffff163373ffffffffffffffffffffffffffffffffffffffff161415610e31576040517f08c379a0000000000000000000000000000000000000000000000000000000008152600401610e2890614b64565b60405180910390fd5b600f544210610e75576040517f08c379a0000000000000000000000000000000000000000000000000000000008152600401610e6c90614bd0565b60405180910390fd5b6000600660003373ffffffffffffffffffffffffffffffffffffffff1673ffffffffffffffffffffffffffffffffffffffff1681526020019081526020016000205411610ef7576040517f08c379a0000000000000000000000000000000000000000000000000000000008152600401610eee906149bd565b60405180910390fd5b6000600660003373ffffffffffffffffffffffffffffffffffffffff1673ffffffffffffffffffffffffffffffffffffffff168152602001908152602001600020549050600081601654610f4b9190614a78565b1015610f8c576040517f08c379a0000000000000000000000000000000000000000000000000000000008152600401610f8390614af8565b60405180910390fd5b610fa1816016546137e290919063ffffffff16565b6016819055506000600660003373ffffffffffffffffffffffffffffffffffffffff1673ffffffffffffffffffffffffffffffffffffffff1681526020019081526020016000208190555061103e81600560003373ffffffffffffffffffffffffffffffffffffffff1673ffffffffffffffffffffffffffffffffffffffff168152602001908152602001600020546137cc90919063ffffffff16565b600560003373ffffffffffffffffffffffffffffffffffffffff1673ffffffffffffffffffffffffffffffffffffffff16815260200190815260200160002081905550611096816004546137cc90919063ffffffff16565b6004819055503360136000601154815260200190815260200160002060006101000a81548173ffffffffffffffffffffffffffffffffffffffff021916908373ffffffffffffffffffffffffffffffffffffffff16021790555061110660016011546137cc90919063ffffffff16565b60118190555061112260016012546137cc90919063ffffffff16565b6012819055505050565b6000806000838152602001908152602001600020600101549050919050565b601860009054906101000a900473ffffffffffffffffffffffffffffffffffffffff1673ffffffffffffffffffffffffffffffffffffffff163373ffffffffffffffffffffffffffffffffffffffff16146111db576040517f08c379a00000000000000000000000000000000000000000000000000000000081526004016111d29061480d565b60405180910390fd5b601060009054906101000a900460ff1661122a576040517f08c379a000000000000000000000000000000000000000000000000000000000815260040161122190614879565b60405180910390fd5b600360009054906101000a900473ffffffffffffffffffffffffffffffffffffffff1673ffffffffffffffffffffffffffffffffffffffff1663d9cef87983836040518363ffffffff1660e01b8152600401611287929190614bf0565b600060405180830381600087803b1580156112a157600080fd5b505af11580156112b5573d6000803e3d6000fd5b505050505050565b6112c68261112c565b6112d7816112d2613ca0565b613ca8565b6112e18383613f30565b505050565b600080600454116112fa5760009050611364565b6113616004546113536064600560003373ffffffffffffffffffffffffffffffffffffffff1673ffffffffffffffffffffffffffffffffffffffff168152602001908152602001600020546137b690919063ffffffff16565b613f1a90919063ffffffff16565b90505b90565b61136f613ca0565b73ffffffffffffffffffffffffffffffffffffffff168173ffffffffffffffffffffffffffffffffffffffff16146113dc576040517f08c379a00000000000000000000000000000000000000000000000000000000081526004016113d390614c8b565b60405180910390fd5b6113e68282613d45565b5050565b6000601460003373ffffffffffffffffffffffffffffffffffffffff1673ffffffffffffffffffffffffffffffffffffffff16815260200190815260200160002054905090565b601860009054906101000a900473ffffffffffffffffffffffffffffffffffffffff1673ffffffffffffffffffffffffffffffffffffffff163373ffffffffffffffffffffffffffffffffffffffff16146114c1576040517f08c379a00000000000000000000000000000000000000000000000000000000081526004016114b89061480d565b60405180910390fd5b601060009054906101000a900460ff1615611511576040517f08c379a000000000000000000000000000000000000000000000000000000000815260040161150890614cf7565b60405180910390fd5b600f54421015801561152557506000600f54115b611564576040517f08c379a000000000000000000000000000000000000000000000000000000000815260040161155b90614879565b60405180910390fd5b600760010154600454106115ad576040517f08c379a00000000000000000000000000000000000000000000000000000000081526004016115a490614d63565b60405180910390fd5b6000600190505b60115481101561176c5760006013600083815260200190815260200160002060009054906101000a900473ffffffffffffffffffffffffffffffffffffffff1690506000600560008373ffffffffffffffffffffffffffffffffffffffff1673ffffffffffffffffffffffffffffffffffffffff168152602001908152602001600020541115611758576116cf600560008373ffffffffffffffffffffffffffffffffffffffff1673ffffffffffffffffffffffffffffffffffffffff16815260200190815260200160002054600660008473ffffffffffffffffffffffffffffffffffffffff1673ffffffffffffffffffffffffffffffffffffffff168152602001908152602001600020546137cc90919063ffffffff16565b600660008373ffffffffffffffffffffffffffffffffffffffff1673ffffffffffffffffffffffffffffffffffffffff168152602001908152602001600020819055506000600560008373ffffffffffffffffffffffffffffffffffffffff1673ffffffffffffffffffffffffffffffffffffffff168152602001908152602001600020819055505b50808061176490614d83565b9150506115b4565b506117846004546016546137cc90919063ffffffff16565b6016819055506001601181905550600060158190555060006012819055506000600f819055506000600481905550565b6000600660003373ffffffffffffffffffffffffffffffffffffffff1673ffffffffffffffffffffffffffffffffffffffff16815260200190815260200160002054905090565b6000601654905090565b6013600080815260200190815260200160002060009054906101000a900473ffffffffffffffffffffffffffffffffffffffff1673ffffffffffffffffffffffffffffffffffffffff163373ffffffffffffffffffffffffffffffffffffffff1614156118a7576040517f08c379a000000000000000000000000000000000000000000000000000000000815260040161189e90614b64565b60405180910390fd5b600f5442106118eb576040517f08c379a00000000000000000000000000000000000000000000000000000000081526004016118e290614bd0565b60405180910390fd5b600760020154341015611933576040517f08c379a000000000000000000000000000000000000000000000000000000000815260040161192a90614e18565b60405180910390fd5b61193f6001543361242c565b6119dc573360136000601154815260200190815260200160002060006101000a81548173ffffffffffffffffffffffffffffffffffffffff021916908373ffffffffffffffffffffffffffffffffffffffff1602179055506119ad60016011546137cc90919063ffffffff16565b6011819055506119c960016012546137cc90919063ffffffff16565b6012819055506119db60015433614010565b5b611a2e34600560003373ffffffffffffffffffffffffffffffffffffffff1673ffffffffffffffffffffffffffffffffffffffff168152602001908152602001600020546137cc90919063ffffffff16565b600560003373ffffffffffffffffffffffffffffffffffffffff1673ffffffffffffffffffffffffffffffffffffffff16815260200190815260200160002081905550611a86346004546137cc90919063ffffffff16565b600481905550565b600154611aa281611a9d613ca0565b613ca8565b601060009054906101000a900460ff16611af1576040517f08c379a0000000000000000000000000000000000000000000000000000000008152600401611ae890614879565b60405180910390fd5b600082118015611b405750600560003373ffffffffffffffffffffffffffffffffffffffff1673ffffffffffffffffffffffffffffffffffffffff168152602001908152602001600020548211155b611b7f576040517f08c379a0000000000000000000000000000000000000000000000000000000008152600401611b7690614e84565b60405180910390fd5b60076001015482600454611b939190614a78565b1015611bd4576040517f08c379a0000000000000000000000000000000000000000000000000000000008152600401611bcb90614ef0565b60405180910390fd5b600073ffffffffffffffffffffffffffffffffffffffff16600c60010160009054906101000a900473ffffffffffffffffffffffffffffffffffffffff1673ffffffffffffffffffffffffffffffffffffffff1614611c68576040517f08c379a0000000000000000000000000000000000000000000000000000000008152600401611c5f90614f5c565b60405180910390fd5b81600c6000018190555033600c60010160006101000a81548173ffffffffffffffffffffffffffffffffffffffff021916908373ffffffffffffffffffffffffffffffffffffffff16021790555042600c60020181905550600260009054906101000a900473ffffffffffffffffffffffffffffffffffffffff1673ffffffffffffffffffffffffffffffffffffffff1663034c47bc836040518263ffffffff1660e01b8152600401611d1b91906144b1565b600060405180830381600087803b158015611d3557600080fd5b505af1158015611d49573d6000803e3d6000fd5b505050505050565b6000600454905090565b6000601554905090565b601860009054906101000a900473ffffffffffffffffffffffffffffffffffffffff1673ffffffffffffffffffffffffffffffffffffffff163373ffffffffffffffffffffffffffffffffffffffff1614611df5576040517f08c379a0000000000000000000000000000000000000000000000000000000008152600401611dec9061480d565b60405180910390fd5b6000601754118015611e18575042600760040154601754611e169190614f7c565b105b611e57576040517f08c379a0000000000000000000000000000000000000000000000000000000008152600401611e4e9061501e565b60405180910390fd5b600260009054906101000a900473ffffffffffffffffffffffffffffffffffffffff1673ffffffffffffffffffffffffffffffffffffffff16633fdc4c3030600260009054906101000a900473ffffffffffffffffffffffffffffffffffffffff1673ffffffffffffffffffffffffffffffffffffffff1663815b796c306040518263ffffffff1660e01b8152600401611ef1919061504d565b602060405180830381865afa158015611f0e573d6000803e3d6000fd5b505050506040513d601f19601f82011682018060405250810190611f32919061507d565b6040518363ffffffff1660e01b8152600401611f4f9291906150aa565b600060405180830381600087803b158015611f6957600080fd5b505af1158015611f7d573d6000803e3d6000fd5b5050505060006017819055506000600c600001819055506000600c60010160006101000a81548173ffffffffffffffffffffffffffffffffffffffff021916908373ffffffffffffffffffffffffffffffffffffffff1602179055506000600c600201819055506000600190505b6011548110156121a35760006013600083815260200190815260200160002060009054906101000a900473ffffffffffffffffffffffffffffffffffffffff1690506000600560008373ffffffffffffffffffffffffffffffffffffffff1673ffffffffffffffffffffffffffffffffffffffff16815260200190815260200160002054111561218f57612106600560008373ffffffffffffffffffffffffffffffffffffffff1673ffffffffffffffffffffffffffffffffffffffff16815260200190815260200160002054600660008473ffffffffffffffffffffffffffffffffffffffff1673ffffffffffffffffffffffffffffffffffffffff168152602001908152602001600020546137cc90919063ffffffff16565b600660008373ffffffffffffffffffffffffffffffffffffffff1673ffffffffffffffffffffffffffffffffffffffff168152602001908152602001600020819055506000600560008373ffffffffffffffffffffffffffffffffffffffff1673ffffffffffffffffffffffffffffffffffffffff168152602001908152602001600020819055505b50808061219b90614d83565b915050611feb565b5060006121bb601654476137e290919063ffffffff16565b905060008111156121d757476016819055506121d6816137f8565b5b6001601181905550600060158190555060006012819055506000600f81905550600060048190555050565b6000600f54905090565b601860009054906101000a900473ffffffffffffffffffffffffffffffffffffffff1673ffffffffffffffffffffffffffffffffffffffff163373ffffffffffffffffffffffffffffffffffffffff161461229c576040517f08c379a00000000000000000000000000000000000000000000000000000000081526004016122939061480d565b60405180910390fd5b601060009054906101000a900460ff166122eb576040517f08c379a00000000000000000000000000000000000000000000000000000000081526004016122e290614879565b60405180910390fd5b6000601060006101000a81548160ff02191690831515021790555042601781905550600260009054906101000a900473ffffffffffffffffffffffffffffffffffffffff1673ffffffffffffffffffffffffffffffffffffffff166360afbac6600260009054906101000a900473ffffffffffffffffffffffffffffffffffffffff1673ffffffffffffffffffffffffffffffffffffffff16634b1c4c296040518163ffffffff1660e01b8152600401602060405180830381865afa1580156123b8573d6000803e3d6000fd5b505050506040513d601f19601f820116820180604052508101906123dc919061507d565b6040518263ffffffff1660e01b81526004016123f891906144b1565b600060405180830381600087803b15801561241257600080fd5b505af1158015612426573d6000803e3d6000fd5b50505050565b600080600084815260200190815260200160002060000160008373ffffffffffffffffffffffffffffffffffffffff1673ffffffffffffffffffffffffffffffffffffffff16815260200190815260200160002060009054906101000a900460ff16905092915050565b601860009054906101000a900473ffffffffffffffffffffffffffffffffffffffff1673ffffffffffffffffffffffffffffffffffffffff163373ffffffffffffffffffffffffffffffffffffffff1614612526576040517f08c379a000000000000000000000000000000000000000000000000000000000815260040161251d9061480d565b60405180910390fd5b6000600c6002015411801561254f575042600760040154600c6002015461254d9190614f7c565b105b61258e576040517f08c379a00000000000000000000000000000000000000000000000000000000081526004016125859061511f565b60405180910390fd5b600260009054906101000a900473ffffffffffffffffffffffffffffffffffffffff1673ffffffffffffffffffffffffffffffffffffffff1663a9a2b8b7306040518263ffffffff1660e01b81526004016125e9919061504d565b600060405180830381600087803b15801561260357600080fd5b505af1158015612617573d6000803e3d6000fd5b50505050612635600c600001546016546137cc90919063ffffffff16565b6016819055506126b7600c6000015460056000600c60010160009054906101000a900473ffffffffffffffffffffffffffffffffffffffff1673ffffffffffffffffffffffffffffffffffffffff1673ffffffffffffffffffffffffffffffffffffffff168152602001908152602001600020546137e290919063ffffffff16565b60056000600c60010160009054906101000a900473ffffffffffffffffffffffffffffffffffffffff1673ffffffffffffffffffffffffffffffffffffffff1673ffffffffffffffffffffffffffffffffffffffff16815260200190815260200160002081905550600060056000600c60010160009054906101000a900473ffffffffffffffffffffffffffffffffffffffff1673ffffffffffffffffffffffffffffffffffffffff1673ffffffffffffffffffffffffffffffffffffffff1681526020019081526020016000205414156127a9576127a260016012546137e290919063ffffffff16565b6012819055505b612825600c6000015460066000600c60010160009054906101000a900473ffffffffffffffffffffffffffffffffffffffff1673ffffffffffffffffffffffffffffffffffffffff1673ffffffffffffffffffffffffffffffffffffffff168152602001908152602001600020546137cc90919063ffffffff16565b60066000600c60010160009054906101000a900473ffffffffffffffffffffffffffffffffffffffff1673ffffffffffffffffffffffffffffffffffffffff1673ffffffffffffffffffffffffffffffffffffffff168152602001908152602001600020819055506128a7600c600001546004546137e290919063ffffffff16565b6004819055506000600c600001819055506000600c60010160006101000a81548173ffffffffffffffffffffffffffffffffffffffff021916908373ffffffffffffffffffffffffffffffffffffffff1602179055506000600c60020181905550565b60015461291e81612919613ca0565b613ca8565b8173ffffffffffffffffffffffffffffffffffffffff163373ffffffffffffffffffffffffffffffffffffffff16141580156129875750600073ffffffffffffffffffffffffffffffffffffffff168273ffffffffffffffffffffffffffffffffffffffff1614155b6129c6576040517f08c379a00000000000000000000000000000000000000000000000000000000081526004016129bd90614951565b60405180910390fd5b6000600560003373ffffffffffffffffffffffffffffffffffffffff1673ffffffffffffffffffffffffffffffffffffffff1681526020019081526020016000205411612a48576040517f08c379a0000000000000000000000000000000000000000000000000000000008152600401612a3f9061518b565b60405180910390fd5b612a546001548361242c565b612ad9578160136000601154815260200190815260200160002060006101000a81548173ffffffffffffffffffffffffffffffffffffffff021916908373ffffffffffffffffffffffffffffffffffffffff160217905550612ac260016011546137cc90919063ffffffff16565b601181905550612ad460015483614010565b612af6565b612aef60016012546137e290919063ffffffff16565b6012819055505b612b87600560003373ffffffffffffffffffffffffffffffffffffffff1673ffffffffffffffffffffffffffffffffffffffff16815260200190815260200160002054600560008573ffffffffffffffffffffffffffffffffffffffff1673ffffffffffffffffffffffffffffffffffffffff168152602001908152602001600020546137cc90919063ffffffff16565b600560008473ffffffffffffffffffffffffffffffffffffffff1673ffffffffffffffffffffffffffffffffffffffff168152602001908152602001600020819055506000600560003373ffffffffffffffffffffffffffffffffffffffff1673ffffffffffffffffffffffffffffffffffffffff168152602001908152602001600020819055506000600660003373ffffffffffffffffffffffffffffffffffffffff1673ffffffffffffffffffffffffffffffffffffffff168152602001908152602001600020541415612c6457612c6360015433613d45565b5b5050565b6000801b81565b600154612c8381612c7e613ca0565b613ca8565b6013600080815260200190815260200160002060009054906101000a900473ffffffffffffffffffffffffffffffffffffffff1673ffffffffffffffffffffffffffffffffffffffff163373ffffffffffffffffffffffffffffffffffffffff161415612d25576040517f08c379a0000000000000000000000000000000000000000000000000000000008152600401612d1c90614b64565b60405180910390fd5b601060009054906101000a900460ff16612d74576040517f08c379a0000000000000000000000000000000000000000000000000000000008152600401612d6b90614879565b60405180910390fd5b612dc634600560003373ffffffffffffffffffffffffffffffffffffffff1673ffffffffffffffffffffffffffffffffffffffff168152602001908152602001600020546137cc90919063ffffffff16565b600560003373ffffffffffffffffffffffffffffffffffffffff1673ffffffffffffffffffffffffffffffffffffffff16815260200190815260200160002081905550612e1e346004546137cc90919063ffffffff16565b600481905550600260009054906101000a900473ffffffffffffffffffffffffffffffffffffffff1673ffffffffffffffffffffffffffffffffffffffff1663c57bd3a8346040518263ffffffff1660e01b8152600401612e7f91906144b1565b600060405180830381600087803b158015612e9957600080fd5b505af1158015612ead573d6000803e3d6000fd5b5050505050565b612ebc614291565b60076040518060a001604052908160008201548152602001600182015481526020016002820154815260200160038201548152602001600482015481525050905090565b6000601254905090565b601860009054906101000a900473ffffffffffffffffffffffffffffffffffffffff1673ffffffffffffffffffffffffffffffffffffffff163373ffffffffffffffffffffffffffffffffffffffff1614612f9a576040517f08c379a0000000000000000000000000000000000000000000000000000000008152600401612f919061480d565b60405180910390fd5b601060009054906101000a900460ff1615612fea576040517f08c379a0000000000000000000000000000000000000000000000000000000008152600401612fe190614cf7565b60405180910390fd5b600f544210158015612ffe57506000600f54115b61303d576040517f08c379a000000000000000000000000000000000000000000000000000000000815260040161303490614879565b60405180910390fd5b6004544710158015613056575060076001015460045410155b613095576040517f08c379a000000000000000000000000000000000000000000000000000000000815260040161308c90614d63565b60405180910390fd5b600260009054906101000a900473ffffffffffffffffffffffffffffffffffffffff1673ffffffffffffffffffffffffffffffffffffffff16630a1bff60600454600260009054906101000a900473ffffffffffffffffffffffffffffffffffffffff1673ffffffffffffffffffffffffffffffffffffffff16634b1c4c296040518163ffffffff1660e01b8152600401602060405180830381865afa158015613143573d6000803e3d6000fd5b505050506040513d601f19601f82011682018060405250810190613167919061507d565b6040518363ffffffff1660e01b81526004016131849291906151ab565b600060405180830381600087803b15801561319e57600080fd5b505af11580156131b2573d6000803e3d6000fd5b505050506001601060006101000a81548160ff021916908315150217905550565b601860009054906101000a900473ffffffffffffffffffffffffffffffffffffffff1673ffffffffffffffffffffffffffffffffffffffff163373ffffffffffffffffffffffffffffffffffffffff1614613263576040517f08c379a000000000000000000000000000000000000000000000000000000000815260040161325a9061480d565b60405180910390fd5b60148710156132a7576040517f08c379a000000000000000000000000000000000000000000000000000000000815260040161329e90615220565b60405180910390fd5b601060009054906101000a900460ff16156132f7576040517f08c379a00000000000000000000000000000000000000000000000000000000081526004016132ee90614cf7565b60405180910390fd5b8660076000018190555061331c670de0b6b3a7640000876137b690919063ffffffff16565b600760010181905550613340670de0b6b3a7640000866137b690919063ffffffff16565b600760020181905550613364670de0b6b3a7640000846137b690919063ffffffff16565b60076003018190555083600f81905550806007600401819055508173ffffffffffffffffffffffffffffffffffffffff166013600080815260200190815260200160002060009054906101000a900473ffffffffffffffffffffffffffffffffffffffff1673ffffffffffffffffffffffffffffffffffffffff161461352a576000600560006013600080815260200190815260200160002060009054906101000a900473ffffffffffffffffffffffffffffffffffffffff1673ffffffffffffffffffffffffffffffffffffffff1673ffffffffffffffffffffffffffffffffffffffff168152602001908152602001600020541480156134d857506000600660006013600080815260200190815260200160002060009054906101000a900473ffffffffffffffffffffffffffffffffffffffff1673ffffffffffffffffffffffffffffffffffffffff1673ffffffffffffffffffffffffffffffffffffffff16815260200190815260200160002054145b1561351d5761351c6001546013600080815260200190815260200160002060009054906101000a900473ffffffffffffffffffffffffffffffffffffffff16613d45565b5b61352960015483614010565b5b816013600080815260200190815260200160002060006101000a81548173ffffffffffffffffffffffffffffffffffffffff021916908373ffffffffffffffffffffffffffffffffffffffff16021790555050505050505050565b61358e8261112c565b61359f8161359a613ca0565b613ca8565b6135a98383613d45565b505050565b60008060009050601060009054906101000a900460ff16156135d357600190506135f9565b600060175411156135e757600290506135f8565b6000600f5414156135f757600390505b5b5b8091505090565b601860009054906101000a900473ffffffffffffffffffffffffffffffffffffffff1673ffffffffffffffffffffffffffffffffffffffff163373ffffffffffffffffffffffffffffffffffffffff1614613690576040517f08c379a00000000000000000000000000000000000000000000000000000000081526004016136879061480d565b60405180910390fd5b601060009054906101000a900460ff166136df576040517f08c379a00000000000000000000000000000000000000000000000000000000081526004016136d690614879565b60405180910390fd5b600360009054906101000a900473ffffffffffffffffffffffffffffffffffffffff1673ffffffffffffffffffffffffffffffffffffffff1663aa5ac585826040518263ffffffff1660e01b815260040161373a919061453e565b600060405180830381600087803b15801561375457600080fd5b505af1158015613768573d6000803e3d6000fd5b5050505050565b6000600560003373ffffffffffffffffffffffffffffffffffffffff1673ffffffffffffffffffffffffffffffffffffffff16815260200190815260200160002054905090565b600081836137c49190615240565b905092915050565b600081836137da9190614f7c565b905092915050565b600081836137f09190614a78565b905092915050565b60006004541161383d576040517f08c379a000000000000000000000000000000000000000000000000000000000815260040161383490614d63565b60405180910390fd5b600061387c61386d606461385f600760000154866137b690919063ffffffff16565b613f1a90919063ffffffff16565b836137e290919063ffffffff16565b90506000600190505b601154811015613ace5760006013600083815260200190815260200160002060009054906101000a900473ffffffffffffffffffffffffffffffffffffffff1690506000600560008373ffffffffffffffffffffffffffffffffffffffff1673ffffffffffffffffffffffffffffffffffffffff168152602001908152602001600020541115613aba576000613977600454613969600560008673ffffffffffffffffffffffffffffffffffffffff1673ffffffffffffffffffffffffffffffffffffffff16815260200190815260200160002054876137b690919063ffffffff16565b613f1a90919063ffffffff16565b90506139cb81600660008573ffffffffffffffffffffffffffffffffffffffff1673ffffffffffffffffffffffffffffffffffffffff168152602001908152602001600020546137cc90919063ffffffff16565b600660008473ffffffffffffffffffffffffffffffffffffffff1673ffffffffffffffffffffffffffffffffffffffff16815260200190815260200160002081905550613a6081601460008573ffffffffffffffffffffffffffffffffffffffff1673ffffffffffffffffffffffffffffffffffffffff168152602001908152602001600020546137cc90919063ffffffff16565b601460008473ffffffffffffffffffffffffffffffffffffffff1673ffffffffffffffffffffffffffffffffffffffff16815260200190815260200160002081905550613ab681866137e290919063ffffffff16565b9450505b508080613ac690614d83565b915050613885565b5060006013600080815260200190815260200160002060009054906101000a900473ffffffffffffffffffffffffffffffffffffffff169050613b5983600660008473ffffffffffffffffffffffffffffffffffffffff1673ffffffffffffffffffffffffffffffffffffffff168152602001908152602001600020546137cc90919063ffffffff16565b600660008373ffffffffffffffffffffffffffffffffffffffff1673ffffffffffffffffffffffffffffffffffffffff16815260200190815260200160002081905550613bee83601460008473ffffffffffffffffffffffffffffffffffffffff1673ffffffffffffffffffffffffffffffffffffffff168152602001908152602001600020546137cc90919063ffffffff16565b601460008373ffffffffffffffffffffffffffffffffffffffff1673ffffffffffffffffffffffffffffffffffffffff16815260200190815260200160002081905550505050565b60007f01ffc9a7000000000000000000000000000000000000000000000000000000007bffffffffffffffffffffffffffffffffffffffffffffffffffffffff1916827bffffffffffffffffffffffffffffffffffffffffffffffffffffffff1916149050919050565b600033905090565b613cb2828261242c565b613d4157613cd78173ffffffffffffffffffffffffffffffffffffffff16601461401e565b613ce58360001c602061401e565b604051602001613cf69291906153ac565b6040516020818303038152906040526040517f08c379a0000000000000000000000000000000000000000000000000000000008152600401613d389190615430565b60405180910390fd5b5050565b613d4f828261242c565b15613e2257600080600084815260200190815260200160002060000160008373ffffffffffffffffffffffffffffffffffffffff1673ffffffffffffffffffffffffffffffffffffffff16815260200190815260200160002060006101000a81548160ff021916908315150217905550613dc7613ca0565b73ffffffffffffffffffffffffffffffffffffffff168173ffffffffffffffffffffffffffffffffffffffff16837ff6391f5c32d9c69d2a47ea670b442974b53935d1edc7fd64eb21e047a839171b60405160405180910390a45b5050565b80471015613e69576040517f08c379a0000000000000000000000000000000000000000000000000000000008152600401613e609061549e565b60405180910390fd5b60008273ffffffffffffffffffffffffffffffffffffffff1682604051613e8f906154ef565b60006040518083038185875af1925050503d8060008114613ecc576040519150601f19603f3d011682016040523d82523d6000602084013e613ed1565b606091505b5050905080613f15576040517f08c379a0000000000000000000000000000000000000000000000000000000008152600401613f0c90615576565b60405180910390fd5b505050565b60008183613f2891906155c5565b905092915050565b613f3a828261242c565b61400c57600160008084815260200190815260200160002060000160008373ffffffffffffffffffffffffffffffffffffffff1673ffffffffffffffffffffffffffffffffffffffff16815260200190815260200160002060006101000a81548160ff021916908315150217905550613fb1613ca0565b73ffffffffffffffffffffffffffffffffffffffff168173ffffffffffffffffffffffffffffffffffffffff16837f2f8788117e7eff1d82e926ec794901d17c78024a50270940304540a733656f0d60405160405180910390a45b5050565b61401a8282613f30565b5050565b6060600060028360026140319190615240565b61403b9190614f7c565b67ffffffffffffffff811115614054576140536155f6565b5b6040519080825280601f01601f1916602001820160405280156140865781602001600182028036833780820191505090505b5090507f3000000000000000000000000000000000000000000000000000000000000000816000815181106140be576140bd615625565b5b60200101907effffffffffffffffffffffffffffffffffffffffffffffffffffffffffffff1916908160001a9053507f78000000000000000000000000000000000000000000000000000000000000008160018151811061412257614121615625565b5b60200101907effffffffffffffffffffffffffffffffffffffffffffffffffffffffffffff1916908160001a905350600060018460026141629190615240565b61416c9190614f7c565b90505b600181111561420c577f3031323334353637383961626364656600000000000000000000000000000000600f8616601081106141ae576141ad615625565b5b1a60f81b8282815181106141c5576141c4615625565b5b60200101907effffffffffffffffffffffffffffffffffffffffffffffffffffffffffffff1916908160001a905350600485901c94508061420590615654565b905061416f565b5060008414614250576040517f08c379a0000000000000000000000000000000000000000000000000000000008152600401614247906156ca565b60405180910390fd5b8091505092915050565b604051806060016040528060008152602001600073ffffffffffffffffffffffffffffffffffffffff168152602001600081525090565b6040518060a0016040528060008152602001600081526020016000815260200160008152602001600081525090565b600080fd5b60007fffffffff0000000000000000000000000000000000000000000000000000000082169050919050565b6142fa816142c5565b811461430557600080fd5b50565b600081359050614317816142f1565b92915050565b600060208284031215614333576143326142c0565b5b600061434184828501614308565b91505092915050565b60008115159050919050565b61435f8161434a565b82525050565b600060208201905061437a6000830184614356565b92915050565b600073ffffffffffffffffffffffffffffffffffffffff82169050919050565b60006143ab82614380565b9050919050565b6143bb816143a0565b81146143c657600080fd5b50565b6000813590506143d8816143b2565b92915050565b6000602082840312156143f4576143f36142c0565b5b6000614402848285016143c9565b91505092915050565b6000819050919050565b61441e8161440b565b82525050565b600061442f82614380565b9050919050565b61443f81614424565b82525050565b60608201600082015161445b6000850182614415565b50602082015161446e6020850182614436565b5060408201516144816040850182614415565b50505050565b600060608201905061449c6000830184614445565b92915050565b6144ab8161440b565b82525050565b60006020820190506144c660008301846144a2565b92915050565b6000819050919050565b6144df816144cc565b81146144ea57600080fd5b50565b6000813590506144fc816144d6565b92915050565b600060208284031215614518576145176142c0565b5b6000614526848285016144ed565b91505092915050565b614538816144cc565b82525050565b6000602082019050614553600083018461452f565b92915050565b600080604083850312156145705761456f6142c0565b5b600061457e858286016144ed565b925050602061458f858286016144ed565b9150509250929050565b6145a281614424565b81146145ad57600080fd5b50565b6000813590506145bf81614599565b92915050565b600080604083850312156145dc576145db6142c0565b5b60006145ea858286016144ed565b92505060206145fb858286016145b0565b9150509250929050565b61460e8161440b565b811461461957600080fd5b50565b60008135905061462b81614605565b92915050565b600060208284031215614647576146466142c0565b5b60006146558482850161461c565b91505092915050565b600060208284031215614674576146736142c0565b5b6000614682848285016145b0565b91505092915050565b60a0820160008201516146a16000850182614415565b5060208201516146b46020850182614415565b5060408201516146c76040850182614415565b5060608201516146da6060850182614415565b5060808201516146ed6080850182614415565b50505050565b600060a082019050614708600083018461468b565b92915050565b600080600080600080600060e0888a03121561472d5761472c6142c0565b5b600061473b8a828b0161461c565b975050602061474c8a828b0161461c565b965050604061475d8a828b0161461c565b955050606061476e8a828b0161461c565b945050608061477f8a828b0161461c565b93505060a06147908a828b016145b0565b92505060c06147a18a828b0161461c565b91505092959891949750929550565b600082825260208201905092915050565b7f4e6f74206d616e6167656d656e74210000000000000000000000000000000000600082015250565b60006147f7600f836147b0565b9150614802826147c1565b602082019050919050565b60006020820190508181036000830152614826816147ea565b9050919050565b7f4e6f6465206e6f74207374617274656421000000000000000000000000000000600082015250565b60006148636011836147b0565b915061486e8261482d565b602082019050919050565b6000602082019050818103600083015261489281614856565b9050919050565b7f4e6577526577617264206e6f7420656e6f756768210000000000000000000000600082015250565b60006148cf6015836147b0565b91506148da82614899565b602082019050919050565b600060208201905081810360008301526148fe816148c2565b9050919050565b7f4163636f756e7420697320696c6c6567616c2100000000000000000000000000600082015250565b600061493b6013836147b0565b915061494682614905565b602082019050919050565b6000602082019050818103600083015261496a8161492e565b9050919050565b7f4d656d62657252656465656d7320697320696c6c6567616c2100000000000000600082015250565b60006149a76019836147b0565b91506149b282614971565b602082019050919050565b600060208201905081810360008301526149d68161499a565b9050919050565b7f50656e64696e6752657761726420697320696c6c6567616c2100000000000000600082015250565b6000614a136019836147b0565b9150614a1e826149dd565b602082019050919050565b60006020820190508181036000830152614a4281614a06565b9050919050565b7f4e487b7100000000000000000000000000000000000000000000000000000000600052601160045260246000fd5b6000614a838261440b565b9150614a8e8361440b565b925082821015614aa157614aa0614a49565b5b828203905092915050565b7f50656e64696e67526577617264206e6f7420656e6f7567682100000000000000600082015250565b6000614ae26019836147b0565b9150614aed82614aac565b602082019050919050565b60006020820190508181036000830152614b1181614ad5565b9050919050565b7f5374616b65416464722069732074656368210000000000000000000000000000600082015250565b6000614b4e6012836147b0565b9150614b5982614b18565b602082019050919050565b60006020820190508181036000830152614b7d81614b41565b9050919050565b7f5374616b6554696d652069732065787069726564210000000000000000000000600082015250565b6000614bba6015836147b0565b9150614bc582614b84565b602082019050919050565b60006020820190508181036000830152614be981614bad565b9050919050565b6000604082019050614c05600083018561452f565b614c12602083018461452f565b9392505050565b7f416363657373436f6e74726f6c3a2063616e206f6e6c792072656e6f756e636560008201527f20726f6c657320666f722073656c660000000000000000000000000000000000602082015250565b6000614c75602f836147b0565b9150614c8082614c19565b604082019050919050565b60006020820190508181036000830152614ca481614c68565b9050919050565b7f4e6f646520737461727465642100000000000000000000000000000000000000600082015250565b6000614ce1600d836147b0565b9150614cec82614cab565b602082019050919050565b60006020820190508181036000830152614d1081614cd4565b9050919050565b7f546f74616c5374616b6520697320696c6c6567616c2100000000000000000000600082015250565b6000614d4d6016836147b0565b9150614d5882614d17565b602082019050919050565b60006020820190508181036000830152614d7c81614d40565b9050919050565b6000614d8e8261440b565b91507fffffffffffffffffffffffffffffffffffffffffffffffffffffffffffffffff821415614dc157614dc0614a49565b5b600182019050919050565b7f4c657373207468616e20706572496e76657374446f776e4c696d697421000000600082015250565b6000614e02601d836147b0565b9150614e0d82614dcc565b602082019050919050565b60006020820190508181036000830152614e3181614df5565b9050919050565b7f416d6f756e7420697320696c6c6567616c210000000000000000000000000000600082015250565b6000614e6e6012836147b0565b9150614e7982614e38565b602082019050919050565b60006020820190508181036000830152614e9d81614e61565b9050919050565b7f4c657373207468616e2066756e6473446f776e4c696d69742100000000000000600082015250565b6000614eda6019836147b0565b9150614ee582614ea4565b602082019050919050565b60006020820190508181036000830152614f0981614ecd565b9050919050565b7f5363686564756c696e6721000000000000000000000000000000000000000000600082015250565b6000614f46600b836147b0565b9150614f5182614f10565b602082019050919050565b60006020820190508181036000830152614f7581614f39565b9050919050565b6000614f878261440b565b9150614f928361440b565b9250827fffffffffffffffffffffffffffffffffffffffffffffffffffffffffffffffff03821115614fc757614fc6614a49565b5b828201905092915050565b7f4c6561766554696d65206973206e6f7420757021000000000000000000000000600082015250565b60006150086014836147b0565b915061501382614fd2565b602082019050919050565b6000602082019050818103600083015261503781614ffb565b9050919050565b61504781614424565b82525050565b6000602082019050615062600083018461503e565b92915050565b60008151905061507781614605565b92915050565b600060208284031215615093576150926142c0565b5b60006150a184828501615068565b91505092915050565b60006040820190506150bf600083018561503e565b6150cc60208301846144a2565b9392505050565b7f426f6e644c65737354696d65206973206e6f7420757021000000000000000000600082015250565b60006151096017836147b0565b9150615114826150d3565b602082019050919050565b60006020820190508181036000830152615138816150fc565b9050919050565b7f4e6f207374616b65210000000000000000000000000000000000000000000000600082015250565b60006151756009836147b0565b91506151808261513f565b602082019050919050565b600060208201905081810360008301526151a481615168565b9050919050565b60006040820190506151c060008301856144a2565b6151cd60208301846144a2565b9392505050565b7f5f7465636850726f706f7274696f6e20697320696c6c6567616c210000000000600082015250565b600061520a601b836147b0565b9150615215826151d4565b602082019050919050565b60006020820190508181036000830152615239816151fd565b9050919050565b600061524b8261440b565b91506152568361440b565b9250817fffffffffffffffffffffffffffffffffffffffffffffffffffffffffffffffff048311821515161561528f5761528e614a49565b5b828202905092915050565b600081905092915050565b7f416363657373436f6e74726f6c3a206163636f756e7420000000000000000000600082015250565b60006152db60178361529a565b91506152e6826152a5565b601782019050919050565b600081519050919050565b60005b8381101561531a5780820151818401526020810190506152ff565b83811115615329576000848401525b50505050565b600061533a826152f1565b615344818561529a565b93506153548185602086016152fc565b80840191505092915050565b7f206973206d697373696e6720726f6c6520000000000000000000000000000000600082015250565b600061539660118361529a565b91506153a182615360565b601182019050919050565b60006153b7826152ce565b91506153c3828561532f565b91506153ce82615389565b91506153da828461532f565b91508190509392505050565b6000601f19601f8301169050919050565b6000615402826152f1565b61540c81856147b0565b935061541c8185602086016152fc565b615425816153e6565b840191505092915050565b6000602082019050818103600083015261544a81846153f7565b905092915050565b7f416464726573733a20696e73756666696369656e742062616c616e6365000000600082015250565b6000615488601d836147b0565b915061549382615452565b602082019050919050565b600060208201905081810360008301526154b78161547b565b9050919050565b600081905092915050565b50565b60006154d96000836154be565b91506154e4826154c9565b600082019050919050565b60006154fa826154cc565b9150819050919050565b7f416464726573733a20756e61626c6520746f2073656e642076616c75652c207260008201527f6563697069656e74206d61792068617665207265766572746564000000000000602082015250565b6000615560603a836147b0565b915061556b82615504565b604082019050919050565b6000602082019050818103600083015261558f81615553565b9050919050565b7f4e487b7100000000000000000000000000000000000000000000000000000000600052601260045260246000fd5b60006155d08261440b565b91506155db8361440b565b9250826155eb576155ea615596565b5b828204905092915050565b7f4e487b7100000000000000000000000000000000000000000000000000000000600052604160045260246000fd5b7f4e487b7100000000000000000000000000000000000000000000000000000000600052603260045260246000fd5b600061565f8261440b565b9150600082141561567357615672614a49565b5b600182039050919050565b7f537472696e67733a20686578206c656e67746820696e73756666696369656e74600082015250565b60006156b46020836147b0565b91506156bf8261567e565b602082019050919050565b600060208201905081810360008301526156e3816156a7565b905091905056fea2646970667358221220c122edff1f39f2526efdf5e119ad03d8edf4710dd25fabd0d6ced419dc3b351264736f6c634300080c0033",
  "immutableReferences": {},
  "source": "// SPDX-License-Identifier: GPL-3.0-only\r\npragma solidity ^0.8.0;\r\nimport \"./StakingInterface.sol\";\r\nimport \"./AuthorMappingInterface.sol\";\r\nimport \"openzeppelin-solidity/contracts/access/AccessControl.sol\";\r\nimport \"openzeppelin-solidity/contracts/utils/math/SafeMath.sol\";\r\nimport \"openzeppelin-solidity/contracts/utils/Address.sol\";\r\n\r\ncontract AdouCollator is AccessControl{\r\n    using SafeMath for uint256;\r\n\r\n    //\r\n    bytes32 private MEMBER;\r\n    //\r\n    address private constant precompileStakingAddr = 0x0000000000000000000000000000000000000800;\r\n    address private constant precompileAuthorMappingAddr = 0x0000000000000000000000000000000000000807;\r\n    //\r\n    ParachainStaking private staking;\r\n    AuthorMapping private authorMapping;\r\n    //\r\n    uint256 private totalStake;\r\n    //\r\n    mapping(address => uint256) private memberStakes;\r\n    //\r\n    mapping(address => uint256) private memberRedeems;\r\n\r\n    //\r\n    struct NodeConfig{\r\n        uint techProportion;//\r\n        uint fundsDownLimit;//\r\n        uint perInvestDownLimit;//\r\n        uint rewardDownLimit;//\r\n        uint256 scheduleTime;//\r\n    }\r\n    NodeConfig private nodeConfig;\r\n\r\n    //\r\n    struct RedeemConfig{\r\n        uint bondLess;//\r\n        address bondLessAddr;//\r\n        uint256 bondLessTime;//\r\n    }\r\n    RedeemConfig private redeemConfig;\r\n\r\n    //,\r\n    uint256 private nodeStartDate;\r\n    //\r\n    uint constant private techDownLimit = 20;\r\n    //\r\n    bool private governanceFlag = false;\r\n    //\r\n    uint private memberTotal = 0;\r\n    //\r\n    uint private memberReal = 0;\r\n    //\r\n    mapping(uint => address) private memberAddrs;\r\n    //\r\n    mapping(address => uint256) private memberRewards;\r\n    //\r\n    uint256 private totalReward = 0;\r\n    //\r\n    uint256 private pendingReward = 0;\r\n    //\r\n    uint256 private leaveTime;\r\n    //sudo\r\n    address private ownerAddress;\r\n    //\r\n    address private stakeRewardAddr;\r\n    //\r\n    uint private constant unitLength = 1000000000000000000;\r\n\r\n    constructor(uint _techProportion\r\n                ,uint _fundsDownLimit\r\n                ,uint _perInvestDownLimit\r\n                ,uint256 _nodeStartDate\r\n                ,uint _rewardDownLimit\r\n                ,address _techRewardAddr\r\n                ,uint256 _scheduleTime) {\r\n        nodeConfig.techProportion = _techProportion;\r\n        nodeConfig.fundsDownLimit = _fundsDownLimit.mul(unitLength);\r\n        nodeConfig.perInvestDownLimit =  _perInvestDownLimit.mul(unitLength);\r\n        nodeConfig.rewardDownLimit = _rewardDownLimit.mul(unitLength);\r\n        nodeStartDate = _nodeStartDate;\r\n        nodeConfig.scheduleTime =  _scheduleTime;\r\n        ownerAddress = msg.sender;\r\n        staking = ParachainStaking(precompileStakingAddr);\r\n        authorMapping = AuthorMapping(precompileAuthorMappingAddr);\r\n        //\r\n        MEMBER = bytes32(uint256(uint160(address(this))) << 96);\r\n        memberAddrs[memberTotal] = _techRewardAddr;\r\n        memberTotal = memberTotal.add(1);\r\n        _setupRole(MEMBER, _techRewardAddr);\r\n    }\r\n\r\n    modifier isOwner() { \r\n        require(msg.sender == ownerAddress,'Not management!');\r\n        _;\r\n    }\r\n\r\n    fallback () external payable{}\r\n\r\n    receive () external payable{}\r\n\r\n    //sudo\r\n    function setParameter(uint _techProportion\r\n                ,uint _fundsDownLimit\r\n                ,uint _perInvestDownLimit\r\n                ,uint256 _nodeStartDate\r\n                ,uint _rewardDownLimit\r\n                ,address _techRewardAddr\r\n                ,uint256 _scheduleTime) public isOwner{\r\n        require(_techProportion >= techDownLimit,'_techProportion is illegal!');\r\n        require(!governanceFlag,'Node started!');\r\n        nodeConfig.techProportion = _techProportion;\r\n        nodeConfig.fundsDownLimit = _fundsDownLimit.mul(unitLength);\r\n        nodeConfig.perInvestDownLimit =  _perInvestDownLimit.mul(unitLength);\r\n        nodeConfig.rewardDownLimit = _rewardDownLimit.mul(unitLength);\r\n        nodeStartDate = _nodeStartDate;\r\n        nodeConfig.scheduleTime = _scheduleTime;\r\n        if(memberAddrs[0] != _techRewardAddr){\r\n            if(memberStakes[memberAddrs[0]] == 0 && memberRedeems[memberAddrs[0]] == 0){\r\n                _revokeRole(MEMBER,memberAddrs[0]);\r\n            }                  \r\n            _setupRole(MEMBER, _techRewardAddr);\r\n        }\r\n        memberAddrs[0] = _techRewardAddr; \r\n    }\r\n\r\n    //\r\n    function _assign(uint256 newReward) private{\r\n        require(totalStake > 0 ,'TotalStake is illegal!');\r\n        uint256 stakeReward = newReward.sub(newReward.mul(nodeConfig.techProportion).div(100));\r\n        for(uint i = 1; i < memberTotal; i++){\r\n            address ra = memberAddrs[i];\r\n            if(memberStakes[ra] > 0){\r\n                uint256 reward = stakeReward.mul(memberStakes[ra]).div(totalStake);\r\n                memberRedeems[ra] = memberRedeems[ra].add(reward);\r\n                memberRewards[ra] = memberRewards[ra].add(reward);\r\n                newReward = newReward.sub(reward);\r\n            }\r\n        }\r\n        address ta = memberAddrs[0];\r\n        memberRedeems[ta] = memberRedeems[ta].add(newReward);\r\n        memberRewards[ta] = memberRewards[ta].add(newReward);\r\n    }\r\n\r\n    //\r\n    function scheduleLeaveStake() public isOwner{\r\n        //\r\n        require(governanceFlag,'Node not started!');\r\n        governanceFlag = false;\r\n        leaveTime = block.timestamp;\r\n        staking.schedule_leave_candidates(staking.candidate_count());\r\n    }\r\n\r\n    //,sudo\r\n    function executeLeaveStake() public isOwner{\r\n        require(leaveTime > 0 && (leaveTime + nodeConfig.scheduleTime) < block.timestamp, 'LeaveTime is not up!');\r\n        //\r\n        staking.execute_leave_candidates(address(this),staking.candidate_delegation_count(address(this)));\r\n        leaveTime = 0;\r\n        redeemConfig.bondLess = 0;\r\n        redeemConfig.bondLessAddr = address(0);        \r\n        redeemConfig.bondLessTime = 0;\r\n        for(uint i = 1; i < memberTotal; i++){\r\n            address ra = memberAddrs[i];\r\n            if(memberStakes[ra] > 0){\r\n                memberRedeems[ra] = memberRedeems[ra].add(memberStakes[ra]);\r\n                memberStakes[ra] = 0;\r\n            }\r\n        }\r\n        //\r\n        uint256 newReward = (address(this).balance).sub(pendingReward);\r\n        if(newReward > 0){\r\n            pendingReward = address(this).balance;\r\n            _assign(newReward);\r\n        }\r\n        memberTotal = 1;\r\n        totalReward = 0;\r\n        memberReal = 0;\r\n        nodeStartDate = 0;\r\n        totalStake = 0; \r\n    }\r\n\r\n    //\r\n    function addStake() external payable {\r\n        require(msg.sender != memberAddrs[0],'StakeAddr is tech!');\r\n        require(block.timestamp < nodeStartDate,'StakeTime is expired!');\r\n        require(msg.value >= nodeConfig.perInvestDownLimit,'Less than perInvestDownLimit!');\r\n        if(!hasRole(MEMBER, msg.sender)){\r\n            memberAddrs[memberTotal] = msg.sender;\r\n            memberTotal = memberTotal.add(1);\r\n            memberReal = memberReal.add(1);\r\n            _setupRole(MEMBER, msg.sender);\r\n        }\r\n        memberStakes[msg.sender] = memberStakes[msg.sender].add(msg.value);\r\n        totalStake = totalStake.add(msg.value);        \r\n    }\r\n\r\n    //000000000000000000\r\n    function addMoreStake() external payable onlyRole(MEMBER){\r\n        require(msg.sender != memberAddrs[0],'StakeAddr is tech!');\r\n        require(governanceFlag,'Node not started!');\r\n        memberStakes[msg.sender] = memberStakes[msg.sender].add(msg.value);\r\n        totalStake = totalStake.add(msg.value);\r\n        staking.candidate_bond_more(msg.value);\r\n    }\r\n\r\n    //\r\n    function reStakeRedeem() public onlyRole(MEMBER){\r\n        require(msg.sender != memberAddrs[0],'StakeAddr is tech!');\r\n        require(block.timestamp < nodeStartDate,'StakeTime is expired!');\r\n        require(memberRedeems[msg.sender] > 0,'MemberRedeems is illegal!');\r\n        uint256 reddeem = memberRedeems[msg.sender];\r\n        require(pendingReward - reddeem >= 0,'PendingReward not enough!');\r\n        pendingReward = pendingReward.sub(reddeem);\r\n        memberRedeems[msg.sender] = 0;\r\n        memberStakes[msg.sender] = memberStakes[msg.sender].add(reddeem);\r\n        totalStake = totalStake.add(reddeem);\r\n        memberAddrs[memberTotal] = msg.sender;\r\n        memberTotal = memberTotal.add(1);\r\n        memberReal = memberReal.add(1);\r\n    }\r\n\r\n    //,amountwei\r\n    function scheduleRedeemStake(uint amount) public onlyRole(MEMBER){\r\n        require(governanceFlag,'Node not started!');\r\n        require(amount > 0 && amount <= memberStakes[msg.sender],'Amount is illegal!');\r\n        require(totalStake - amount >= nodeConfig.fundsDownLimit,'Less than fundsDownLimit!');\r\n        require(redeemConfig.bondLessAddr == address(0),'Scheduling!');\r\n        //\r\n        redeemConfig.bondLess = amount;\r\n        redeemConfig.bondLessAddr = msg.sender;        \r\n        redeemConfig.bondLessTime = block.timestamp;\r\n        staking.schedule_candidate_bond_less(amount);\r\n    }\r\n\r\n    //,sudo\r\n    function executeRedeemStake() public isOwner{\r\n        require(redeemConfig.bondLessTime > 0 && (redeemConfig.bondLessTime + nodeConfig.scheduleTime) < block.timestamp, 'BondLessTime is not up!');\r\n        staking.execute_candidate_bond_less(address(this));\r\n        pendingReward = pendingReward.add(redeemConfig.bondLess);\r\n        memberStakes[redeemConfig.bondLessAddr] = memberStakes[redeemConfig.bondLessAddr].sub(redeemConfig.bondLess);\r\n        if(memberStakes[redeemConfig.bondLessAddr] == 0){\r\n            memberReal = memberReal.sub(1);\r\n        }\r\n        memberRedeems[redeemConfig.bondLessAddr] = memberRedeems[redeemConfig.bondLessAddr].add(redeemConfig.bondLess);\r\n        totalStake = totalStake.sub(redeemConfig.bondLess);\r\n        redeemConfig.bondLess = 0;\r\n        redeemConfig.bondLessAddr = address(0);\r\n        redeemConfig.bondLessTime = 0;\r\n    }\r\n\r\n    //,sudo\r\n    function start() public isOwner{\r\n        require(!governanceFlag,'Node started!');\r\n        require(block.timestamp >= nodeStartDate && nodeStartDate > 0,'Node not started!');\r\n        require(address(this).balance >= totalStake && totalStake >= nodeConfig.fundsDownLimit ,'TotalStake is illegal!');\r\n        //\r\n        staking.join_candidates(totalStake, staking.candidate_count());\r\n        governanceFlag = true;\r\n    }\r\n\r\n    //NimbusId\r\n    function addAssociation(bytes32 nimbusId) public isOwner{\r\n        require(governanceFlag,'Node not started!');\r\n        authorMapping.add_association(nimbusId);\r\n    }\r\n\r\n    //NimbusId\r\n    function updateAssociation(bytes32 oldNimbusId,bytes32 newNimbusId) public isOwner{\r\n        require(governanceFlag,'Node not started!');\r\n        authorMapping.update_association(oldNimbusId,newNimbusId);\r\n    }\r\n\r\n    //,sudo\r\n    function failBackStake() public isOwner{\r\n        require(!governanceFlag,'Node started!');\r\n        require(block.timestamp >= nodeStartDate && nodeStartDate > 0,'Node not started!');\r\n        require(totalStake < nodeConfig.fundsDownLimit ,'TotalStake is illegal!');\r\n        for(uint i = 1; i < memberTotal; i++){\r\n            address ra = memberAddrs[i];\r\n            if(memberStakes[ra] > 0){\r\n                memberRedeems[ra] = memberRedeems[ra].add(memberStakes[ra]);\r\n                memberStakes[ra] = 0;\r\n            }\r\n        }\r\n        pendingReward = pendingReward.add(totalStake);\r\n        memberTotal = 1;\r\n        totalReward = 0;\r\n        memberReal = 0;\r\n        nodeStartDate = 0;\r\n        totalStake = 0; \r\n    }\r\n\r\n    //\r\n    function claimRedeem(address payable account) public onlyRole(MEMBER){\r\n        require(account != address(0),'Account is illegal!');\r\n        require(memberRedeems[msg.sender] > 0,'MemberRedeems is illegal!');\r\n        require(pendingReward <= address(this).balance,'PendingReward is illegal!');\r\n        uint256 reddeem = memberRedeems[msg.sender];\r\n        require(pendingReward - reddeem >= 0,'PendingReward not enough!');\r\n        pendingReward = pendingReward.sub(reddeem);\r\n        memberRedeems[msg.sender] = 0;\r\n        if(memberStakes[msg.sender] == 0){\r\n            _revokeRole(MEMBER, msg.sender);\r\n        }\r\n        Address.sendValue(account, reddeem);        \r\n    }\r\n\r\n    //,sudo\r\n    function assignRewards() public isOwner{\r\n        require(governanceFlag,'Node not started!');\r\n        uint256 newReward = (address(this).balance).sub(pendingReward);\r\n        require(newReward >= nodeConfig.rewardDownLimit,'NewReward not enough!');\r\n        pendingReward = address(this).balance;\r\n        totalReward = totalReward.add(newReward);\r\n        _assign(newReward);\r\n    }\r\n\r\n    //\r\n    function fundsTransfer(address account) public onlyRole(MEMBER){\r\n        require(msg.sender != account && account != address(0),'Account is illegal!');\r\n        require(memberStakes[msg.sender] > 0,'No stake!');\r\n        if(!hasRole(MEMBER, account)){\r\n            memberAddrs[memberTotal] = account;\r\n            memberTotal = memberTotal.add(1);\r\n            _setupRole(MEMBER, account);\r\n        }else{\r\n            memberReal = memberReal.sub(1);\r\n        }\r\n        memberStakes[account] = memberStakes[account].add(memberStakes[msg.sender]);\r\n        memberStakes[msg.sender] = 0;\r\n        if(memberRedeems[msg.sender] == 0){\r\n            _revokeRole(MEMBER,msg.sender);\r\n        }\r\n    }\r\n\r\n    //\r\n    function getBalance() public view returns(uint256){\r\n        return address(this).balance;\r\n    }\r\n\r\n    //\r\n    function getReward() public view returns(uint256){\r\n        return memberRewards[msg.sender];\r\n    }\r\n\r\n    //\r\n    function getRedeem() public view returns(uint256){\r\n        return memberRedeems[msg.sender];\r\n    }\r\n\r\n    //\r\n    function getStake() public view returns(uint256){\r\n        return memberStakes[msg.sender];\r\n    }\r\n\r\n    //\r\n    function getTotalStake() public view returns(uint256){\r\n        return totalStake;\r\n    }\r\n\r\n    //\r\n    function getStakeProportion() public view returns(uint256){\r\n        if(totalStake <= 0){\r\n            return 0;\r\n        }\r\n        return memberStakes[msg.sender].mul(100).div(totalStake);\r\n    }\r\n\r\n    //\r\n    function getTotalReward() public view returns(uint256){\r\n        return totalReward;\r\n    }\r\n\r\n    //\r\n    function getPendingReward() public view returns(uint256){\r\n        return pendingReward;\r\n    }    \r\n\r\n    //\r\n    function getAnnualReward() public view returns(uint256){\r\n        if(totalStake <= 0 || block.timestamp < nodeStartDate){\r\n            return 0;\r\n        }\r\n        uint256 day = ((block.timestamp).sub(nodeStartDate)).div(60 * 60 *24);\r\n        if(day <= 0){\r\n            return 0;\r\n        }\r\n        return totalReward.mul(365 * 100).div(totalStake).div(day);\r\n    }\r\n\r\n    //\r\n    function getMemberReal() public view returns(uint){\r\n        return memberReal;\r\n    }\r\n\r\n    //\r\n    function getNodeStartDate() public view returns(uint256){\r\n        return nodeStartDate;\r\n    }\r\n\r\n    //\r\n    function getLeaveTime() public view returns(uint256){\r\n        return leaveTime;\r\n    }\r\n\r\n    // 0 1 2 3\r\n    function getNodeState() public view returns(uint){\r\n        uint state = 0;\r\n        if(governanceFlag){\r\n            state = 1;\r\n        }else if(leaveTime > 0){\r\n            state = 2;\r\n        }else if(nodeStartDate == 0){\r\n            state = 3;\r\n        }\r\n        return state;\r\n    }\r\n\r\n    //\r\n    function getNodeConfig() public view returns(NodeConfig memory){\r\n        return nodeConfig;\r\n    }\r\n\r\n    //\r\n    function getRedeemConfig()public view returns(RedeemConfig memory){\r\n        return redeemConfig;\r\n    }\r\n}",
  "sourcePath": "D:\\\\StaFi-DAO\\StaFi-DAO-view\\truffle-dev\\contracts\\AdouCollator.sol",
  "compiler": {
    "name": "solc",
    "version": "0.8.12+commit.f00d7308.Emscripten.clang"
  },
  "schemaVersion": "3.4.5",
  "updatedAt": "2022-02-28T02:52:09.758Z",
  "devdoc": {
    "kind": "dev",
    "methods": {
      "getRoleAdmin(bytes32)": {
        "details": "Returns the admin role that controls `role`. See {grantRole} and {revokeRole}. To change a role's admin, use {_setRoleAdmin}."
      },
      "grantRole(bytes32,address)": {
        "details": "Grants `role` to `account`. If `account` had not been already granted `role`, emits a {RoleGranted} event. Requirements: - the caller must have ``role``'s admin role."
      },
      "hasRole(bytes32,address)": {
        "details": "Returns `true` if `account` has been granted `role`."
      },
      "renounceRole(bytes32,address)": {
        "details": "Revokes `role` from the calling account. Roles are often managed via {grantRole} and {revokeRole}: this function's purpose is to provide a mechanism for accounts to lose their privileges if they are compromised (such as when a trusted device is misplaced). If the calling account had been revoked `role`, emits a {RoleRevoked} event. Requirements: - the caller must be `account`."
      },
      "revokeRole(bytes32,address)": {
        "details": "Revokes `role` from `account`. If `account` had been granted `role`, emits a {RoleRevoked} event. Requirements: - the caller must have ``role``'s admin role."
      },
      "supportsInterface(bytes4)": {
        "details": "See {IERC165-supportsInterface}."
      }
    },
    "version": 1
  },
  "userdoc": {
    "kind": "user",
    "methods": {},
    "version": 1
  }
}